:02000000472A8D
:10000600293083120313FD00FD0B072800000800AA
:06001600000000000800DC
:10001C00123083120313FC00DA30FD00FD0B1428A0
:08002C00FC0B14280000080081
:1000340083160313EC1B21288312851323288312B0
:10004400851783166C1B2928831205132B2883120A
:1000540005178316EC1A312883128512332883126C
:10006400851683166C1A3928831205123B288312CD
:1000740005166C183F2805154028051185150B2019
:1000840085118316EC194928831285134B28831292
:10009400851783166C19512883120513532883126C
:1000A40005178316EC185928831285125B288312CE
:1000B400851683166C18612883120512632883122F
:1000C40005166C18672805156828051185150B2079
:0E00D40085116C1C6F280E2070280320080078
:1000E200831203136C1083166B08EC001A206C1435
:0200F200080004
:0E00F400831203136B088A006A08820008005A
:100102009328803083160313E800A628C030E80045
:10011200A6289430E800A628D430E800A62880302B
:10012200E800A628831603136808013A03198228F7
:100132006808023A031987286808033A03198A28CB
:100142006808043A03198D2890286903F0006808AA
:10015200F0077008E8007008EC001A206C10EF013C
:100162006F0883166A07840000080319C2288312E5
:100172006F0883166A0784000008EB007120EF0AFB
:08018200B12883126C1408007F
:10018A00013083160313EC001A200C308316EC009E
:10019A001A2001308316E8000130E9002030EA0015
:1001AA0081204030FB006A30FC009730FD00FD0BD7
:1001BA00DC28FC0BDC28FB0BDC2800000000080014
:1001CA00831603138511051105128512051385136C
:1001DA0083128511051185130513851205120E2048
:1001EA000E200E208516051685150B2085110E206A
:1001FA0085150B2085110E2085150B2085110E20E3
:10020A00051285150B2085110E2085150B208511E9
:10021A008512851785150B2085110E208513051665
:10022A0085150B208511051285150B2085110E20C9
:10023A0085150B208511051685150B2085110E20B5
:10024A00051285150B2085118517051785160516C4
:0C025A0085150B2085110E206C14080087
:1002660083160313E401E5010130E6000030E700E0
:100276000130EC001A20003083166306031D452961
:1002860001306206031D4F290130E8000130E90004
:100296002B30EA008120572901308316E80001300F
:1002A600E9003B30EA0081208312061C99290330BD
:1002B600FB008A30FC005530FD00FD0B6029FC0B6D
:1002C6006029FB0B6029000000008316E60A03196B
:1002D600E70A00306306031D722901306206031D1A
:1002E60080298030F000803067067002031D7D296A
:1002F6006608043C03188029952900306306031D0F
:10030600862902306206031D94298030F000803071
:1003160067067002031D91296608033C0318942999
:10032600952999290130E6000030E7008312861CE2
:10033600B0290330FB008A30FC005530FD00FD0B70
:10034600A229FC0BA229FB0BA229000000008316A0
:100356006608E4006708E500352A83160030630660
:10036600031DB72901306206031DFF29DD2902306E
:10037600E8000130E900B630EA008120FE290230AB
:100386008316E8000130E900D230EA008120FE2918
:1003960002308316E8000130E900C430EA0081200B
:1003A600FE2902308316E8000130E900A830EA0091
:1003B6008120FE29003083166706031DE4290130DB
:1003C60066060319BA2900306706031DEC290230B8
:1003D60066060319C22900306706031DF429033097
:1003E60066060319CB2900306706031DFC29043075
:1003F60066060319D429342A1B2A83160230E8001C
:100406000130E9005630EA008120342A0230831692
:10041600E8000130E9004C30EA008120342A02303D
:100426008316E8000130E9006030EA008120342AB2
:10043600003083166706031D222A0130660603195B
:10044600002A00306706031D2A2A023066060319B1
:10045600092A00306706031D322A0330660603198F
:10046600122A572983166408F0006508F10008006F
:100476007A208A110A128000840AEA0A0319EB0A12
:08048600F003031D3B2A0800EE
:10048E00722483160313850103308600E520C520F0
:10049E0001308316EC001A2001308316E200003082
:1004AE00E300332170088312ED007108EE00023074
:1004BE008316E2000030E30033217008E00071087B
:1004CE00E1000130EC001A2001308316E800013003
:1004DE00E900A030EA008120982A02308316E80055
:1004EE000130E900B630EA008120B82A02308316C6
:1004FE00E8000130E900D230EA008120B82A02304B
:10050E008316E8000130E900C430EA008120B82AE1
:10051E0002308316E8000130E900A830EA0081209D
:10052E00B82A00306E06031D9E2A01306D0603198F
:10053E00742A00306E06031DA62A02306D060319BA
:10054E007D2A00306E06031DAE2A03306D06031998
:10055E00862A00306E06031DB62A04306D06031976
:10056E008F2A003083166106031DBF2A01306006F4
:10057E00031D1A2B003083126E06031DC82A01308C
:10058E006D06031DDA2A86172730FB000D30FC009E
:10059E002630FD00FD0BD12AFC0BD12AFB0BD12AF4
:1005AE0000008613192B00306E06031DE02A023060
:1005BE006D06031DF22A06172730FB000D30FC00D6
:1005CE002630FD00FD0BE92AFC0BE92AFB0BE92A7C
:1005DE0000000613192B00306E06031DF82A033097
:1005EE006D06031D0A2B86162730FB000D30FC000E
:1005FE002630FD00FD0B012BFC0B012BFB0B012B01
:10060E0000008612192B06162730FB000D30FC0059
:10061E002630FD00FD0B112BFC0B112BFB0B112BB0
:10062E0000000612E12B003083166106031D212BFC
:10063E0002306006031D802B003083126E06031DF0
:10064E002A2B01306D06031D3D2B86174030FB0013
:10065E006A30FC009730FD00FD0B332BFC0B332B67
:10066E00FB0B332B0000000086137F2B00306E0631
:10067E00031D432B02306D06031D562B061740300B
:10068E00FB006A30FC009730FD00FD0B4C2BFC0B81
:10069E004C2BFB0B4C2B0000000006137F2B003065
:1006AE006E06031D5C2B03306D06031D6F2B861625
:1006BE004030FB006A30FC009730FD00FD0B652BCF
:1006CE00FC0B652BFB0B652B0000000086127F2BAD
:1006DE0006164030FB006A30FC009730FD00FD0B23
:1006EE00762BFC0B762BFB0B762B000000000612F4
:1006FE00E12B003083166106031D872B0330600645
:10070E00031DE12B003083126E06031D902B01306A
:10071E006D06031DA22B86175930FB00C830FC0056
:10072E000830FD00FD0B992BFC0B992BFB0B992B25
:10073E0000008613E12B00306E06031DA82B02303D
:10074E006D06031DBA2B06175930FB00C830FC008E
:10075E000830FD00FD0BB12BFC0BB12BFB0BB12BAD
:10076E0000000613E12B00306E06031DC02B033074
:10077E006D06031DD22B86165930FB00C830FC00C7
:10078E000830FD00FD0BC92BFC0BC92BFB0BC92B35
:10079E0000008612E12B06165930FB00C830FC0013
:1007AE000830FD00FD0BD92BFC0BD92BFB0BD92BE5
:0807BE0000000612532AE22B91
:1008E400203084004A3083120313F000E830EA0019
:1008F4000330EB003B22A03084004030831203130A
:0E090400F0003230EA000430EB003B22080025
:1007D000423465346D342D34563469346E346434A7
:0607E0006F3421340034E7
:1007E6004534733463346F346C3468346134203484
:1007F6004234653462346934643461343A340034E2
:100806004534733463346F346C3468346134203463
:10081600543461346D3461346E3468346F343A3430
:0208260000349C
:1008280020344D34653464346934613420342034E0
:040838002034003434
:10083C002034503465347134753465346E3461341D
:04084C002034003420
:1008500020344734723461346E3464346534203467
:04086000203400340C
:100864004234653462346934643461343A34003473
:100874005334543445344C344C34413420344134AE
:0C088400523454344F344934533400349F
:1008900042345234413448344D34413420342034CD
:0C08A00020342034203420342034003474
:1008AC0045344934533445344E344234413448345D
:0C08BC004E34203420342034203400342A
:1008C8004834453449344E3445344B3445344E3439
:0C08D8002034203420342034203400343C
:02400E006A2125
:00000001FF
